:100000000C94FA000C9417010C9417010C9417012E
:100010000C9417010C9417010C9417010C9495047F
:100020000C9417010C948B040C9421070C945B071F
:100030000C9417010C9417010C9417010C941701E0
:100040000C9417010C9417010C9417010C941701D0
:100050000C9417010C9477040C9417010C9417015D
:100060000C9417010C9489010C9417010C9417013E
:100070000C9417010C9417010C9417010C941701A0
:100080000C9417010C9417010C9417010C94170190
:100090000C9417010C9417010C9417010C94170180
:1000A0000C9417010C9417010C941701C206BE069C
:1000B000BA06B606B206AE06AA06A606A2069E06B0
:1000C0009A06960692068E068A06860682067E06A0
:1000D0007A06760672066E066A06660662065E0690
:1000E0005A06560652064E064A06460642063E0680
:1000F0003A06360632062E062A06260622061E0670
:100100001A06160612060E060A0606060206FE0560
:10011000FA05F605F205EE05EA05E605E205DE0557
:10012000DA05D605D205CE05CA05C605C205000109
:100130000000D701120002000094014300030000F8
:100140009001040103090478011602030904660101
:10015000100303090458010C0C0331003200330072
:1001600034003500000010034D00610069006E008E
:100170004D006F00640000001603530069006D001D
:100180006D006F0020005300610061006E000000F0
:100190000403090409024300020100C032090400FB
:1001A00000010202010005240010010524010101E3
:1001B00004240206052406000107058203100040FE
:1001C00009040100020A00000007050302400000C4
:1001D000070584024000001201000202000010C066
:1001E000167A040001010203010001C112018036E8
:1001F0000181360011241FBECFEFDAE0DEBFCDBF94
:1002000011E0A0E0B1E0EEE4FBE102C005900D9248
:10021000AE35B107D9F711E0AEE5B1E001C01D92EE
:10022000A539B107E1F70E94AB080C94A50D0C9419
:1002300000008D3031F091E08A3009F090E0892F94
:1002400001C081E08170089590EE980F81E09F35A4
:1002500008F080E008958AB1886C8AB952985E9A55
:100260005F9883E390E09093CD008093CC0088E981
:100270008093C9008EE08093CA000895CF93DF93E6
:10028000EC018991882319F00E941005FACFDF91C3
:10029000CF910895FC019191992339F08091C80084
:1002A00085FFFCCF9093CE00F6CF80E29EE40197CD
:1002B000F1F70895CF92DF92FF920F931F93CF93A0
:1002C000DF931F92CDB7DEB7F82E6C011C2D1F19DE
:1002D0001617A8F469830E94C004082F0E94190110
:1002E0006981882321F0F6011082162F08C080EE64
:1002F000800F8F3568F7F60101936F01E7CF812FEB
:100300000F90DF91CF911F910F91FF90DF90CF90D1
:1003100008951F920F920FB60F9211242F933F93BF
:100320004F935F936F937F938F939F93AF93BF93FD
:10033000CF93DF93EF93FF9381B3D1E08D2781BB00
:10034000C091CE008C2F0E941901882359F0E091B2
:100350005F01F0E0EB58FE4F108210925F01D093E6
:100360005E010EC080EE8C0F8F3550F4E0915F017E
:1003700081E08E0F80935F01F0E0EB58FE4FC08369
:10038000FF91EF91DF91CF91BF91AF919F918F91AD
:100390007F916F915F914F913F912F910F900FBE81
:1003A0000F901F9018959F938F938BE091E09F93F0
:1003B0008F9385E691E09F938F930E94BA0A0F90E6
:1003C0000F900F900F900F900F9085E691E00C9496
:1003D0003E01CF93DF93EC0180E090E00E94AE0CF1
:1003E000DF93CF931F928F9388E091E09F938F9339
:1003F00085E691E09F938F930E94BA0A8DB79EB7CE
:1004000008960FB6F8949EBF0FBE8DBF85E691E0AB
:10041000DF91CF910C944A01CF93DF93EC010E94BE
:10042000D301CE01DF91CF910C94E9019F938F937B
:100430008FE091E09F938F9385E691E09F938F9358
:100440000E94BA0A0F900F900F900F900F900F908C
:1004500085E691E00C943E01CF93DF93EC0180E0C0
:1004600090E00E94AE0CDF93CF931F928F9385E1B3
:1004700091E09F938F9385E691E09F938F930E94E5
:10048000BA0A8DB79EB708960FB6F8949EBF0FBEF6
:100490008DBF85E691E0DF91CF910C944A01CF9317
:1004A000DF93EC010E941602CE01DF91CF910C94F4
:1004B0002C02FB0101900020E9F73197AF01461BA8
:1004C000570B0E94A40A21E0892B09F020E0822F1B
:1004D00008958F929F92AF92BF92CF92DF92EF9248
:1004E000FF920F931F93CF93DF93EC0191B382E0C0
:1004F000892781BB611107C093EDE92E91E0F92EA8
:1005000006E112E01BC080E090E00E94AE0C182FC4
:10051000CE010E94860A212F30E08217930709F04E
:10052000D9C1CE01EC01019628812A33D9F7EC011B
:1005300089EEE82E81E0F82E0CE212E06EE171E027
:10054000CE010E945902882349F0CE0102960E94F2
:10055000860A682F80E090E00E94B60C61E271E0AC
:10056000CE010E945902882341F0CE0102960E94DA
:10057000860A682F82E090E01EC064E271E0CE013E
:100580000E945902882349F080E090E00E94AE0C5E
:100590001F928F9386E291E0E7C06CE271E0CE019A
:1005A0000E9459028823A9F0CE0102960E94860A71
:1005B000682F81E090E0DF91CF911F910F91FF9024
:1005C000EF90DF90CF90BF90AF909F908F900C9462
:1005D000B60C6FE271E0CE010E945902882349F007
:1005E000CE0102960E94860A892B09F4A2C05D9A68
:1005F00071C162E371E0CE010E945902882349F083
:10060000CE0102960E94860A892B09F09CC05C9854
:1006100061C165E371E0CE010E945902882309F4AB
:100620008AC0CE0101960E94860A5C985D9A009766
:1006300009F03DC082E090E00E94AE0C682F70E0AF
:1006400080E090E00E946D094B015C0120E030E009
:100650004AE755E40E94FB096B017C0120E030E091
:1006600040E85FE30E943D0987FD5EC020E03FEF68
:100670004FE757E4C701B6010E94F70918160CF0BE
:100680004EC020E030E040E251E4C501B4010E94D8
:10069000FB090E94410920E931E06115710509F467
:1006A00048C0C9010197F1F761507109F6CFBC014B
:1006B000882777FD8095982F0E946F094B015C0178
:1006C00020E030E04AE755E40E94FB096B017C0121
:1006D00020E030E040E85FE30E943D0987FD24C050
:1006E00020E03FEF4FE757E4C701B6010E94F7094A
:1006F0001816ACF420E030E040E251E4C501B4014A
:100700000E94FB090E94410920E931E06115710551
:1007100081F0C9010197F1F761507109F7CFC70165
:10072000B6010E94410902C061E070E0CB0101976F
:10073000F1F75D98CFC067E371E0CE010E945902E6
:10074000882319F05D985C9AC5C069E371E0CE0119
:100750000E9459028823B9F08CB186FB882780F962
:100760001F928F938CE391E09F938F9385E891E0A4
:100770009F938F930E94BA0A0F900F900F900F9043
:100780000F900F906AC062E471E0CE010E9459029E
:10079000882371F1CE0101960E94860AAC01813056
:1007A000910541F08230910551F499B1969521E07F
:1007B000922702C099B19095917080E002C09FEF9E
:1007C0008FEF8F939F935F934F9384E491E09F9378
:1007D0008F9385E891E09F938F930E94BA0A8DB71B
:1007E0009EB708960FB6F8949EBF0FBE8DBF35C05A
:1007F0006BE471E0CE010E945902882391F1CE0191
:1008000002960E94860A8130910529F08230910576
:1008100061F426B101C023B1332727FD3095232F82
:10082000221F2227221F30E002C02FEF3FEF3F930D
:100830002F939F938F938EE491E09F938F9385E8FE
:1008400091E09F938F930E94BA0A8DB79EB7089646
:100850000FB6F8949EBF0FBE8DBF85E891E0F801FA
:100860002CC066E571E0CE010E945902882339F060
:10087000CE0102960E94860A809398002BC069E5FB
:1008800071E0CE010E945902882359F0CE010296F0
:100890000E94860A21E0892B09F420E020930001C0
:1008A00019C06CE571E0CE010E945902882319F04D
:1008B000109260010FC0CE01F701DF91CF911F911F
:1008C0000F91FF90EF90DF90CF90BF90AF909F90EF
:1008D0008F900994DF91CF911F910F91FF90EF902E
:1008E000DF90CF90BF90AF909F908F9008951F9210
:1008F0000F920FB60F9211248F9381B3805881BB52
:10090000809160018F5F809360018F910F900FBE87
:100910000F901F9018951F920F920FB60F921124EF
:100920000F900FBE0F901F9018951F920F920FB649
:100930000F9211240F900FBE0F901F901895809169
:10094000E80080FFFCCF089581E08093D70080EA23
:100950008093D80082E189BD09B400FEFDCF80E913
:100960008093D8001092E00010926401109261010F
:100970008CE08093E200789408958091640108955A
:100980009FB7F89480916401882369F083E0809395
:10099000E9002BE68091E80085FD09C082FF03C0D5
:1009A0002093E800F7CF9FBF8FEF9FEF08958091CE
:1009B000F1002091E80025FD03C02BE62093E8001C
:1009C0009FBF90E008952FB7F89480916401811142
:1009D00002C080E010C083E08093E9008091F200C3
:1009E000811109C09091E80092FFF3CF95FDF1CFFE
:1009F0009BE69093E8002FBF0895809164018823BF
:100A000071F08FB7F89493E09093E9002BE6909102
:100A1000E80095FF03C02093E800F9CF8FBF089549
:100A200090916401992371F09FB7F89424E020938A
:100A3000E90020916201222349F02091E80025FD80
:100A400003C09FBF8FEF0895109262012091E400D0
:100A5000275E34E04091E80045FD12C09FBF9091B1
:100A6000E400921304C081E080936201EBCF909187
:100A70006401992339F39FB7F8943093E900EACFE2
:100A80008093F1008091E80085FD03C08AE38093A4
:100A9000E80085E0809363019FBF80E00895909116
:100AA00064019923D1F09FB7F89424E02093E900E2
:100AB0002091E80025FD02C09FBF0FC08093F10088
:100AC0008091E80085FD03C08AE38093E80085E01B
:100AD000809363019FBF80E008958FEF08950F9387
:100AE0001F93CF93DF93DC01CB012091640122237C
:100AF00071F02FB7F89434E03093E900309162013F
:100B0000332349F03091E80035FD03C02FBF8FEF4C
:100B100043C110926201C4E0D0E41AE305E00097FB
:100B200009F439C13091E400375E4091E80045FD99
:100B300012C02FBF2091E400231304C081E08093F2
:100B40006201E5CF20916401222309F32FB7F894C5
:100B5000C093E900EACF3091F200ED2FE31B4E2F56
:100B600050E08417950708F4E82F8E1B91094E2F4B
:100B700050E04134510508F001C1FA01EA5AFF4F33
:100B80000C9437093C913093F10011963C913093CD
:100B9000F10011963C913093F10011963C91309305
:100BA000F10011963C913093F10011963C913093F5
:100BB000F10011963C913093F10011963C913093E5
:100BC000F10011963C913093F10011963C913093D5
:100BD000F10011963C913093F10011963C913093C5
:100BE000F10011963C913093F10011963C913093B5
:100BF000F10011963C913093F10011963C913093A5
:100C0000F10011963C913093F10011963C91309394
:100C1000F10011963C913093F10011963C91309384
:100C2000F10011963C913093F10011963C91309374
:100C3000F10011963C913093F10011963C91309364
:100C4000F10011963C913093F10011963C91309354
:100C5000F10011963C913093F10011963C91309344
:100C6000F10011963C913093F10011963C91309334
:100C7000F10011963C913093F10011963C91309324
:100C8000F10011963C913093F10011963C91309314
:100C9000F10011963C913093F10011963C91309304
:100CA000F10011963C913093F10011963C913093F4
:100CB000F10011963C913093F10011963C913093E4
:100CC000F10011963C913093F10011963C913093D4
:100CD000F10011963C913093F10011963C913093C4
:100CE000F10011963C913093F10011963C913093B4
:100CF000F10011963C913093F10011963C913093A4
:100D0000F10011963C913093F10011963C91309393
:100D1000F10011963C913093F10011963C91309383
:100D2000F10011963C913093F10011963C91309373
:100D3000F10011963C913093F10011963C91309363
:100D4000F10011963C913093F10011963C91309353
:100D5000F10011963C913093F10011963C91309343
:100D6000F10011963C913093F10011963C91309333
:100D7000F10011963C913093F10011963C91309323
:100D8000F10011963091E80035FF1093E8000093D0
:100D900063012FBFC4CE80E0DF91CF911F910F91EF
:100DA00008958FB7F89490916301992341F094E0EE
:100DB0009093E9009AE39093E800109263018FBF4B
:100DC0000895609101017091020180910301909159
:100DD0000401089580910501089580910601089508
:100DE0008091070108958091610108959FB7F8945B
:100DF00020916401222339F022E02093E900209120
:100E0000E80025FD03C09FBF8FEF089521EA2093DE
:100E1000F10020E22093F1001092F1001092F10015
:100E20001092F1001092F10021E02093F100109255
:100E3000F1008093F1008AE38093E8009FBF80E097
:100E400008951F920F920FB60F9211248F939F93C4
:100E50008091E1001092E10083FF11C01092E9003F
:100E600091E09093EB001092EC0092E19093ED00F2
:100E700098E09093F000109264011092610182FF5B
:100E800013C080916401882379F0809163018823E5
:100E900059F0815080936301811106C084E08093F2
:100EA000E9008AE38093E8009F918F910F900FBE35
:100EB0000F901F9018951F920F920FB60F9211244A
:100EC000EF92FF920F931F932F933F934F935F9354
:100ED0006F937F938F939F93AF93BF93EF93FF9302
:100EE000CF93DF931F92CDB7DEB71092E9008091C8
:100EF000E80083FF15C19091F1008091F10000910D
:100F0000F1002091F10010E0122B3091F1002091BE
:100F1000F100E32EF12CF22A2091F1006091F10012
:100F200032EF3093E800863009F046C036E08EE2BA
:100F300091E0FC01459154914017510739F4FC01AF
:100F40003296459154914E155F0521F00796315028
:100F500081F7E6C0FC01349645915491FC01369628
:100F6000849130E0362B2F3F310519F010F02FEF30
:100F700030E0281708F4822F3EEF9091E800292FE7
:100F80002570D9F392FDCFC0982F813108F090E100
:100F9000FA01292F222331F064916093F10021504E
:100FA0003196F8CF490F511D891B3093E80081110C
:100FB000E4CF903111F3B7C0853049F48EEF8093C0
:100FC000E8000E949F0400680093E300ACC08930F1
:100FD00059F59111A5C0009364011092610110921E
:100FE00063018EEF8093E80041E089EE91E0409349
:100FF000E9009C012F5F3F4FFC0154915093EB009F
:10100000552359F0F90124912093EC009C012D5FA8
:101010003F4F319684918093ED004F5F453011F042
:10102000C901E5CF8EE177C0883051F4903809F0DE
:1010300077C00E949F04809164018093F10048C0B2
:10104000813279F4913A09F06BC00E949F04E1E08B
:10105000F1E087E08E0F91919093F1008E13FBCF1A
:1010600037C08032A1F4913209F05AC08091E80073
:1010700082FFFCCFE1E0F1E087E08E0F9091F1007C
:1010800091938E13FBCF8BEF8093E80021C08232C7
:1010900041F4913209F044C0009361010E949F0421
:1010A00017C0811119C099830E949F0499819238B9
:1010B00051F4E092E9008091EB0085FB882780F9EC
:1010C0001092E90001C080E08093F1001092F100DD
:1010D0008EEF8093E80027C0282F2D7F213001F567
:1010E0009230F1F4012BE1F42E2D2F779FEF920F28
:1010F0009430B0F49EEF9093E8002093E9008330A1
:1011000079F089E18093EB0081E090E0022E01C04C
:10111000880F0A94EAF78093EA001092EA0003C06D
:1011200081E28093EB000F90DF91CF91FF91EF91DF
:10113000BF91AF919F918F917F916F915F914F91EF
:101140003F912F911F910F91FF90EF900F900FBE45
:101150000F901F901895CF93DF93CDB7DEB76097B0
:101160000FB6F894DEBF0FBECDBF80E8809361005C
:101170001092610085BF85BF80B3836F80BB81B350
:10118000836F81BB559A549A5D985C98249880919E
:10119000680081608093680080916B00806180931B
:1011A0006B008AB18C7F8AB96E9880E180936A0067
:1011B000EE9A27983F980E94A4040E942B0180E198
:1011C00097E220E931E0F9013197F1F70197D9F77A
:1011D00082E084BD95E095BD80936E008AEF87BD67
:1011E00016BC3E9A81E8809390008CE08093910039
:1011F00010929800789400EA1FE080E4E82E8CE9D1
:10120000F82E809100018823A9F080916001843636
:1012100088F05C988EE190E05D9AF8013197F1F7E3
:101220005D98F7013197F1F70197B1F710929800A7
:10123000109260010E94E304882369F060E1CE010E
:1012400001960E945A018031E1F660E0CE010196DC
:101250000E946902D6CF80915E01882391F261E0FD
:1012600085E791E00E94690210925E01CACFEE0FFD
:10127000FF1F0590F491E02D09946CD008F481E0F3
:10128000089594D088F09F5790F0B92F9927B751BF
:10129000A0F0D1F0660F771F881F991F1AF0BA953A
:1012A000C9F712C0B13081F09BD0B1E0089598C069
:1012B000672F782F8827B85F39F0B93FCCF3869530
:1012C00077956795B395D9F73EF49095809570958D
:1012D00061957F4F8F4F9F4F0895E89409C097FB0A
:1012E0003EF490958095709561957F4F8F4F9F4FFD
:1012F0009923A9F0F92F96E9BB279395F695879541
:1013000077956795B795F111F8CFFAF4BB0F11F403
:1013100060FF1BC06F5F7F4F8F4F9F4F16C08823AA
:1013200011F096E911C0772321F09EE8872F762FE0
:1013300005C0662371F096E8862F70E060E02AF021
:101340009A95660F771F881FDAF7880F969587950D
:1013500097F90895990F0008550FAA0BE0E8FEEFE2
:1013600016161706E807F907C0F012161306E40769
:10137000F50798F0621B730B840B950B39F40A2662
:1013800061F0232B242B252B21F408950A2609F440
:10139000A140A6958FEF811D811D089557FD90589E
:1013A000440F551F59F05F3F71F04795880F97FB29
:1013B000991F61F09F3F79F08795089512161306E3
:1013C0001406551FF2CF4695F1DF08C01616170612
:1013D0001806991FF1CF8695710561050894089547
:1013E000E894BB2766277727CB0197F90895B2DFEA
:1013F00008F48FEF08950BD078C069D028F06ED034
:1014000018F0952309F05AC05FC01124EACFC6DF57
:10141000A0F3959FD1F3950F50E0551F629FF00107
:10142000729FBB27F00DB11D639FAA27F00DB11D60
:10143000AA1F649F6627B00DA11D661F829F2227E9
:10144000B00DA11D621F739FB00DA11D621F839F70
:10145000A00D611D221F749F3327A00D611D231F46
:10146000849F600D211D822F762F6A2F11249F5794
:1014700050408AF0E1F088234AF0EE0FFF1FBB1FB7
:10148000661F771F881F91505040A9F79E3F510556
:1014900070F014C0A6CF5F3FECF3983EDCF3869566
:1014A00077956795B795F795E7959F5FC1F7FE2B01
:1014B000880F911D9695879597F9089597F99F67DD
:1014C00080E870E060E008959FEF80EC08950024CC
:1014D0000A941616170618060906089500240A9499
:1014E00012161306140605060895092E0394000C1F
:1014F00011F4882352F0BB0F40F4BF2B11F460FFAE
:1015000004C06F5F7F4F8F4F9F4F0895FC01882766
:101510009927E89421912032E9F3293010F02E30F8
:10152000C8F32B3241F02D3239F4689404C00E9484
:10153000B20A820F911D219120532A30C0F31EF46C
:10154000909581959F4F0895FB01DC0141505040DB
:1015500030F08D910190801919F40020B9F7881BA3
:10156000990B08957AE0979F902D879F802D910D7C
:1015700011240895AEE0B0E0E0ECFAE00C947C0DAC
:101580000D891E8986E08C831A8309838FEF9FE77C
:101590009E838D83AE01475E5F4F6F89788DCE014C
:1015A00001960E94DC0AEF81F885E00FF11F10829E
:1015B0002E96E4E00C94980DACE0B0E0E2EEFAE098
:1015C0000C946E0D7C016B018A01FC01178216825E
:1015D000838181FFBDC1CE0101964C01F70193814A
:1015E000F60193FD859193FF81916F01882309F4A2
:1015F000ABC1853239F493FD859193FF81916F01E1
:10160000853229F4B70190E00E94DE0CE7CF512C1F
:10161000312C20E02032A0F48B3269F030F480329B
:1016200059F0833269F420612CC08D3239F0803357
:1016300039F4216026C02260246023C0286021C0C4
:1016400027FD27C030ED380F3A3078F426FF06C06A
:10165000FAE05F9E300D1124532E13C08AE0389EAD
:10166000300D1124332E20620CC08E3221F426FD61
:101670006BC1206406C08C3611F4206802C0883625
:1016800041F4F60193FD859193FF81916F018111E2
:10169000C1CF982F9F7D9554933028F40C5F1F4F36
:1016A000FFE3F9830DC0833631F0833771F0833562
:1016B00009F05BC022C0F801808189830E5F1F4F53
:1016C00044244394512C540115C03801F2E06F0EAC
:1016D000711CF801A080B18026FF03C0652D70E069
:1016E00002C06FEF7FEFC5012C870E94D30C2C0145
:1016F00083012C852F77222E17C03801F2E06F0E60
:10170000711CF801A080B18026FF03C0652D70E038
:1017100002C06FEF7FEFC5012C870E94C80C2C011F
:101720002C852068222E830123FC1BC0832D90E092
:1017300048165906B0F4B70180E290E00E94DE0C32
:101740003A94F4CFF50127FC859127FE81915F0142
:10175000B70190E00E94DE0C31103A94F1E04F1A8C
:1017600051084114510471F7E5C0843611F08936EF
:1017700039F5F80127FF07C060817181828193816B
:101780000C5F1F4F08C060817181882777FD8095AD
:10179000982F0E5F1F4F2F76B22E97FF09C090959E
:1017A0008095709561957F4F8F4F9F4F2068B22E27
:1017B0002AE030E0A4010E94100DA82EA81844C011
:1017C000853729F42F7EB22E2AE030E025C0F22F93
:1017D000F97FBF2E8F36C1F018F4883579F0B4C088
:1017E000803719F0883721F0AFC02F2F2061B22E3B
:1017F000B4FE0DC08B2D8460B82E09C024FF0AC032
:101800009F2F9660B92E06C028E030E005C020E189
:1018100030E002C020E132E0F801B7FE07C060818D
:101820007181828193810C5F1F4F06C0608171813D
:1018300080E090E00E5F1F4FA4010E94100DA82EC3
:10184000A818FB2DFF77BF2EB6FE0BC02B2D2E7FC9
:10185000A51450F4B4FE0AC0B2FC08C02B2D2E7E95
:1018600005C07A2C2B2D03C07A2C01C0752C24FFC7
:101870000DC0FE01EA0DF11D8081803311F4297E37
:1018800009C022FF06C07394739404C0822F867827
:1018900009F0739423FD13C020FF06C05A2C731463
:1018A00018F4530C5718732C731468F4B70180E2C2
:1018B00090E02C870E94DE0C73942C85F5CF731476
:1018C00010F4371801C0312C24FF12C0B70180E397
:1018D00090E02C870E94DE0C2C8522FF17C021FF90
:1018E00003C088E590E002C088E790E0B7010CC033
:1018F000822F867859F021FD02C080E201C08BE280
:1019000027FD8DE2B70190E00E94DE0CA51438F4AB
:10191000B70180E390E00E94DE0C5A94F7CFAA94BE
:10192000F401EA0DF11D8081B70190E00E94DE0C08
:10193000A110F5CF332009F451CEB70180E290E039
:101940000E94DE0C3A94F6CFF7018681978102C09F
:101950008FEF9FEF2C96E2E10C948A0DF999FECF60
:1019600092BD81BDF89A992780B50895262FF999DF
:10197000FECF92BD81BDF89A019700B4021639F0EE
:101980001FBA20BD0FB6F894FA9AF99A0FBE0895BF
:10199000FC010590615070400110D8F7809590953A
:1019A0008E0F9F1F0895FC0161507040019001103F
:1019B000D8F7809590958E0F9F1F08950F931F93D2
:1019C000CF93DF93182F092FEB018B8181FD03C08B
:1019D0008FEF9FEF20C082FF10C04E815F812C816E
:1019E0003D81421753077CF4E881F9819F012F5F05
:1019F0003F4F39832883108306C0E885F985812FFE
:101A00000995892B29F72E813F812F5F3F4F3F8317
:101A10002E83812F902FDF91CF911F910F910895E9
:101A2000FA01AA27283051F1203181F1E8946F930F
:101A30006E7F6E5F7F4F8F4F9F4FAF4FB1E03ED0B5
:101A4000B4E03CD0670F781F891F9A1FA11D680F53
:101A5000791F8A1F911DA11D6A0F711D811D911D86
:101A6000A11D20D009F468943F912AE0269F1124FB
:101A70003019305D3193DEF6CF010895462F47705F
:101A8000405D4193B3E00FD0C9F7F6CF462F4F70BA
:101A9000405D4A3318F0495D31FD4052419302D018
:101AA000A9F7EACFB4E0A6959795879577956795BE
:101AB000BA95C9F700976105710508959B01AC01BE
:101AC0000A2E06945795479537952795BA95C9F7E5
:101AD000620F731F841F951FA01D08952F923F92C0
:101AE0004F925F926F927F928F929F92AF92BF922E
:101AF000CF92DF92EF92FF920F931F93CF93DF93DA
:101B0000CDB7DEB7CA1BDB0B0FB6F894DEBF0FBE36
:101B1000CDBF09942A88398848885F846E847D8483
:101B20008C849B84AA84B984C884DF80EE80FD8085
:101B30000C811B81AA81B981CE0FD11D0FB6F894FB
:0E1B4000DEBF0FBECDBFED010895F894FFCFBC
:101B4E000100E1000000000825643A25730A003CFC
:101B5E0025733E0A003C25643A25733E0A006964EB
:101B6E00006B64003F0069643A2564006972006B83
:101B7E006F00636F006B006300626C00626C3A254D
:101B8E00640062006225643A256400696F00696F23
:0E1B9E0025643A256400646D006673007000D3
:00000001FF
